{
  "_format": "hh-sol-artifact-1",
  "contractName": "TouristRegistry",
  "sourceName": "contracts/TouristRegistry.sol",
  "abi": [
    {
      "inputs": [
        {
          "internalType": "string",
          "name": "name",
          "type": "string"
        }
      ],
      "name": "addTourist",
      "outputs": [],
      "stateMutability": "nonpayable",
      "type": "function"
    },
    {
      "inputs": [
        {
          "internalType": "string",
          "name": "name",
          "type": "string"
        }
      ],
      "name": "getHashID",
      "outputs": [
        {
          "internalType": "bytes32",
          "name": "",
          "type": "bytes32"
        }
      ],
      "stateMutability": "view",
      "type": "function"
    },
    {
      "inputs": [
        {
          "internalType": "string",
          "name": "",
          "type": "string"
        }
      ],
      "name": "touristHash",
      "outputs": [
        {
          "internalType": "bytes32",
          "name": "",
          "type": "bytes32"
        }
      ],
      "stateMutability": "view",
      "type": "function"
    }
  ],
  "bytecode": "0x6080604052348015600f57600080fd5b5061044d8061001f6000396000f3fe608060405234801561001057600080fd5b50600436106100415760003560e01c806360fd080f1461004657806392586ddc14610062578063e395d56014610092575b600080fd5b610060600480360381019061005b91906102bf565b6100c2565b005b61007c600480360381019061007791906102bf565b610110565b6040516100899190610321565b60405180910390f35b6100ac60048036038101906100a791906102bf565b610137565b6040516100b99190610321565b60405180910390f35b80426040516020016100d59291906103d8565b604051602081830303815290604052805190602001206000826040516100fb9190610400565b90815260200160405180910390208190555050565b600080826040516101219190610400565b9081526020016040518091039020549050919050565b6000818051602081018201805184825260208301602085012081835280955050505050506000915090505481565b6000604051905090565b600080fd5b600080fd5b600080fd5b600080fd5b6000601f19601f8301169050919050565b7f4e487b7100000000000000000000000000000000000000000000000000000000600052604160045260246000fd5b6101cc82610183565b810181811067ffffffffffffffff821117156101eb576101ea610194565b5b80604052505050565b60006101fe610165565b905061020a82826101c3565b919050565b600067ffffffffffffffff82111561022a57610229610194565b5b61023382610183565b9050602081019050919050565b82818337600083830152505050565b600061026261025d8461020f565b6101f4565b90508281526020810184848401111561027e5761027d61017e565b5b610289848285610240565b509392505050565b600082601f8301126102a6576102a5610179565b5b81356102b684826020860161024f565b91505092915050565b6000602082840312156102d5576102d461016f565b5b600082013567ffffffffffffffff8111156102f3576102f2610174565b5b6102ff84828501610291565b91505092915050565b6000819050919050565b61031b81610308565b82525050565b60006020820190506103366000830184610312565b92915050565b600081519050919050565b600081905092915050565b60005b83811015610370578082015181840152602081019050610355565b60008484015250505050565b60006103878261033c565b6103918185610347565b93506103a1818560208601610352565b80840191505092915050565b6000819050919050565b6000819050919050565b6103d26103cd826103ad565b6103b7565b82525050565b60006103e4828561037c565b91506103f082846103c1565b6020820191508190509392505050565b600061040c828461037c565b91508190509291505056fea26469706673582212203bf19b9d02fda3eb362ca5a5ae519ff6ddd65c9a23eb1ed05e647b47ee4ff10664736f6c634300081c0033",
  "linkReferences": {},
  "deployedLinkReferences": {}
}